{
  "_format": "hh-sol-artifact-1",
  "contractName": "SigTest",
  "sourceName": "contracts/SigTest.sol",
  "abi": [
    {
      "inputs": [],
      "name": "ECDSAInvalidSignature",
      "type": "error"
    },
    {
      "inputs": [
        {
          "internalType": "uint256",
          "name": "length",
          "type": "uint256"
        }
      ],
      "name": "ECDSAInvalidSignatureLength",
      "type": "error"
    },
    {
      "inputs": [
        {
          "internalType": "bytes32",
          "name": "s",
          "type": "bytes32"
        }
      ],
      "name": "ECDSAInvalidSignatureS",
      "type": "error"
    },
    {
      "inputs": [
        {
          "internalType": "bytes32",
          "name": "channelId",
          "type": "bytes32"
        },
        {
          "internalType": "uint256",
          "name": "payment",
          "type": "uint256"
        }
      ],
      "name": "paymentDigest",
      "outputs": [
        {
          "internalType": "bytes32",
          "name": "",
          "type": "bytes32"
        }
      ],
      "stateMutability": "view",
      "type": "function"
    },
    {
      "inputs": [
        {
          "internalType": "bytes32",
          "name": "channelId",
          "type": "bytes32"
        },
        {
          "internalType": "uint256",
          "name": "payment",
          "type": "uint256"
        },
        {
          "internalType": "bytes",
          "name": "signature",
          "type": "bytes"
        }
      ],
      "name": "testSig",
      "outputs": [
        {
          "internalType": "address",
          "name": "",
          "type": "address"
        }
      ],
      "stateMutability": "view",
      "type": "function"
    }
  ],
  "bytecode": "0x6080604052348015600f57600080fd5b506104988061001f6000396000f3fe608060405234801561001057600080fd5b50600436106100365760003560e01c806341b6fcf71461003b578063aa4e90d314610091575b600080fd5b61007e610049366004610348565b604080513060208083019190915281830194909452606080820193909352815180820390930183526080019052805191012090565b6040519081526020015b60405180910390f35b6100a461009f366004610380565b6100bc565b6040516001600160a01b039091168152602001610088565b6000806100f98585604080513060208083019190915281830194909452606080820193909352815180820390930183526080019052805191012090565b7f19457468657265756d205369676e6564204d6573736167653a0a3332000000006000908152601c829052603c8120919250906101369085610140565b9695505050505050565b600080600080610150868661016a565b92509250925061016082826101b7565b5090949350505050565b600080600083516041036101a45760208401516040850151606086015160001a61019688828585610279565b9550955095505050506101b0565b50508151600091506002905b9250925092565b60008260038111156101cb576101cb61044c565b036101d4575050565b60018260038111156101e8576101e861044c565b036102065760405163f645eedf60e01b815260040160405180910390fd5b600282600381111561021a5761021a61044c565b036102405760405163fce698f760e01b8152600481018290526024015b60405180910390fd5b60038260038111156102545761025461044c565b03610275576040516335e2f38360e21b815260048101829052602401610237565b5050565b600080807f7fffffffffffffffffffffffffffffff5d576e7357a4501ddfe92f46681b20a08411156102b4575060009150600390508261033e565b604080516000808252602082018084528a905260ff891692820192909252606081018790526080810186905260019060a0016020604051602081039080840390855afa158015610308573d6000803e3d6000fd5b5050604051601f1901519150506001600160a01b0381166103345750600092506001915082905061033e565b9250600091508190505b9450945094915050565b6000806040838503121561035b57600080fd5b50508035926020909101359150565b634e487b7160e01b600052604160045260246000fd5b60008060006060848603121561039557600080fd5b8335925060208401359150604084013567ffffffffffffffff8111156103ba57600080fd5b8401601f810186136103cb57600080fd5b803567ffffffffffffffff8111156103e5576103e561036a565b604051601f8201601f19908116603f0116810167ffffffffffffffff811182821017156104145761041461036a565b60405281815282820160200188101561042c57600080fd5b816020840160208301376000602083830101528093505050509250925092565b634e487b7160e01b600052602160045260246000fdfea26469706673582212207ef6e31c92ec18da3abd4f1856e3628390576e744e9634734ef46fa7f4e6e22364736f6c634300081a0033",
  "linkReferences": {},
  "deployedLinkReferences": {}
}