{
  "_format": "hh-sol-artifact-1",
  "contractName": "Unidirectional",
  "sourceName": "contracts/Unidirectional.sol",
  "abi": [
    {
      "inputs": [],
      "name": "ECDSAInvalidSignature",
      "type": "error"
    },
    {
      "inputs": [
        {
          "internalType": "uint256",
          "name": "length",
          "type": "uint256"
        }
      ],
      "name": "ECDSAInvalidSignatureLength",
      "type": "error"
    },
    {
      "inputs": [
        {
          "internalType": "bytes32",
          "name": "s",
          "type": "bytes32"
        }
      ],
      "name": "ECDSAInvalidSignatureS",
      "type": "error"
    },
    {
      "anonymous": false,
      "inputs": [
        {
          "indexed": true,
          "internalType": "bytes32",
          "name": "channelId",
          "type": "bytes32"
        }
      ],
      "name": "DidClaim",
      "type": "event"
    },
    {
      "anonymous": false,
      "inputs": [
        {
          "indexed": true,
          "internalType": "bytes32",
          "name": "channelId",
          "type": "bytes32"
        },
        {
          "indexed": false,
          "internalType": "uint256",
          "name": "deposit",
          "type": "uint256"
        }
      ],
      "name": "DidDeposit",
      "type": "event"
    },
    {
      "anonymous": false,
      "inputs": [
        {
          "indexed": true,
          "internalType": "bytes32",
          "name": "channelId",
          "type": "bytes32"
        },
        {
          "indexed": true,
          "internalType": "address",
          "name": "sender",
          "type": "address"
        },
        {
          "indexed": true,
          "internalType": "address",
          "name": "receiver",
          "type": "address"
        },
        {
          "indexed": false,
          "internalType": "uint256",
          "name": "value",
          "type": "uint256"
        }
      ],
      "name": "DidOpen",
      "type": "event"
    },
    {
      "anonymous": false,
      "inputs": [
        {
          "indexed": true,
          "internalType": "bytes32",
          "name": "channelId",
          "type": "bytes32"
        }
      ],
      "name": "DidSettle",
      "type": "event"
    },
    {
      "anonymous": false,
      "inputs": [
        {
          "indexed": true,
          "internalType": "bytes32",
          "name": "channelId",
          "type": "bytes32"
        }
      ],
      "name": "DidStartSettling",
      "type": "event"
    },
    {
      "anonymous": false,
      "inputs": [
        {
          "indexed": true,
          "internalType": "address",
          "name": "addr1",
          "type": "address"
        },
        {
          "indexed": true,
          "internalType": "address",
          "name": "addr2",
          "type": "address"
        }
      ],
      "name": "debug1",
      "type": "event"
    },
    {
      "inputs": [
        {
          "internalType": "bytes32",
          "name": "channelId",
          "type": "bytes32"
        },
        {
          "internalType": "uint256",
          "name": "payment",
          "type": "uint256"
        },
        {
          "internalType": "address",
          "name": "origin",
          "type": "address"
        },
        {
          "internalType": "bytes",
          "name": "signature",
          "type": "bytes"
        }
      ],
      "name": "canClaim",
      "outputs": [
        {
          "internalType": "bool",
          "name": "",
          "type": "bool"
        }
      ],
      "stateMutability": "view",
      "type": "function"
    },
    {
      "inputs": [
        {
          "internalType": "bytes32",
          "name": "channelId",
          "type": "bytes32"
        },
        {
          "internalType": "address",
          "name": "origin",
          "type": "address"
        }
      ],
      "name": "canDeposit",
      "outputs": [
        {
          "internalType": "bool",
          "name": "",
          "type": "bool"
        }
      ],
      "stateMutability": "view",
      "type": "function"
    },
    {
      "inputs": [
        {
          "internalType": "bytes32",
          "name": "channelId",
          "type": "bytes32"
        }
      ],
      "name": "canSettle",
      "outputs": [
        {
          "internalType": "bool",
          "name": "",
          "type": "bool"
        }
      ],
      "stateMutability": "view",
      "type": "function"
    },
    {
      "inputs": [
        {
          "internalType": "bytes32",
          "name": "channelId",
          "type": "bytes32"
        },
        {
          "internalType": "address",
          "name": "origin",
          "type": "address"
        }
      ],
      "name": "canStartSettling",
      "outputs": [
        {
          "internalType": "bool",
          "name": "",
          "type": "bool"
        }
      ],
      "stateMutability": "view",
      "type": "function"
    },
    {
      "inputs": [
        {
          "internalType": "bytes32",
          "name": "",
          "type": "bytes32"
        }
      ],
      "name": "channels",
      "outputs": [
        {
          "internalType": "address payable",
          "name": "sender",
          "type": "address"
        },
        {
          "internalType": "address payable",
          "name": "receiver",
          "type": "address"
        },
        {
          "internalType": "uint256",
          "name": "value",
          "type": "uint256"
        },
        {
          "internalType": "uint256",
          "name": "settlingPeriod",
          "type": "uint256"
        },
        {
          "internalType": "uint256",
          "name": "settlingUntil",
          "type": "uint256"
        }
      ],
      "stateMutability": "view",
      "type": "function"
    },
    {
      "inputs": [
        {
          "internalType": "bytes32",
          "name": "channelId",
          "type": "bytes32"
        },
        {
          "internalType": "uint256",
          "name": "payment",
          "type": "uint256"
        },
        {
          "internalType": "bytes",
          "name": "signature",
          "type": "bytes"
        }
      ],
      "name": "claim",
      "outputs": [],
      "stateMutability": "nonpayable",
      "type": "function"
    },
    {
      "inputs": [
        {
          "internalType": "bytes32",
          "name": "channelId",
          "type": "bytes32"
        }
      ],
      "name": "deposit",
      "outputs": [],
      "stateMutability": "payable",
      "type": "function"
    },
    {
      "inputs": [
        {
          "internalType": "bytes32",
          "name": "channelId",
          "type": "bytes32"
        }
      ],
      "name": "isAbsent",
      "outputs": [
        {
          "internalType": "bool",
          "name": "",
          "type": "bool"
        }
      ],
      "stateMutability": "view",
      "type": "function"
    },
    {
      "inputs": [
        {
          "internalType": "bytes32",
          "name": "channelId",
          "type": "bytes32"
        }
      ],
      "name": "isOpen",
      "outputs": [
        {
          "internalType": "bool",
          "name": "",
          "type": "bool"
        }
      ],
      "stateMutability": "view",
      "type": "function"
    },
    {
      "inputs": [
        {
          "internalType": "bytes32",
          "name": "channelId",
          "type": "bytes32"
        }
      ],
      "name": "isPresent",
      "outputs": [
        {
          "internalType": "bool",
          "name": "",
          "type": "bool"
        }
      ],
      "stateMutability": "view",
      "type": "function"
    },
    {
      "inputs": [
        {
          "internalType": "bytes32",
          "name": "channelId",
          "type": "bytes32"
        }
      ],
      "name": "isSettling",
      "outputs": [
        {
          "internalType": "bool",
          "name": "",
          "type": "bool"
        }
      ],
      "stateMutability": "view",
      "type": "function"
    },
    {
      "inputs": [
        {
          "internalType": "bytes32",
          "name": "channelId",
          "type": "bytes32"
        },
        {
          "internalType": "address",
          "name": "receiver",
          "type": "address"
        },
        {
          "internalType": "uint256",
          "name": "settlingPeriod",
          "type": "uint256"
        }
      ],
      "name": "open",
      "outputs": [],
      "stateMutability": "payable",
      "type": "function"
    },
    {
      "inputs": [
        {
          "internalType": "bytes32",
          "name": "channelId",
          "type": "bytes32"
        },
        {
          "internalType": "uint256",
          "name": "payment",
          "type": "uint256"
        }
      ],
      "name": "paymentDigest",
      "outputs": [
        {
          "internalType": "bytes32",
          "name": "",
          "type": "bytes32"
        }
      ],
      "stateMutability": "view",
      "type": "function"
    },
    {
      "inputs": [
        {
          "internalType": "bytes32",
          "name": "channelId",
          "type": "bytes32"
        }
      ],
      "name": "settle",
      "outputs": [],
      "stateMutability": "nonpayable",
      "type": "function"
    },
    {
      "inputs": [
        {
          "internalType": "bytes32",
          "name": "channelId",
          "type": "bytes32"
        }
      ],
      "name": "startSettling",
      "outputs": [],
      "stateMutability": "nonpayable",
      "type": "function"
    }
  ],
  "bytecode": "0x6080604052348015600e575f80fd5b50610f118061001c5f395ff3fe6080604052600436106100e3575f3560e01c80637a7ebd7b11610087578063b214faa511610057578063b214faa5146102da578063e62eea47146102ed578063ec8be5b91461030c578063fd745bce1461032b575f80fd5b80637a7ebd7b146101f65780637c35be7a1461027d578063987757dd1461029c578063ad379089146102bb575f80fd5b80634722361c116100c25780634722361c1461011b57806360546602146101975780636683f9ae146101b65780637964ea87146101d5575f80fd5b8062f31e76146100e75780632f8f0c921461011b57806341b6fcf71461013a575b5f80fd5b3480156100f2575f80fd5b50610106610101366004610c96565b61033e565b60405190151581526020015b60405180910390f35b348015610126575f80fd5b50610106610135366004610cc8565b61034f565b348015610145575f80fd5b50610189610154366004610cf2565b604080513060208083019190915281830194909452606080820193909352815180820390930183526080019052805191012090565b604051908152602001610112565b3480156101a2575f80fd5b506101066101b1366004610c96565b6103c6565b3480156101c1575f80fd5b506101066101d0366004610c96565b610423565b3480156101e0575f80fd5b506101f46101ef366004610db1565b61047f565b005b348015610201575f80fd5b5061024a610210366004610c96565b5f60208190529081526040902080546001820154600283015460038401546004909401546001600160a01b03938416949390921692909185565b604080516001600160a01b039687168152959094166020860152928401919091526060830152608082015260a001610112565b348015610288575f80fd5b50610106610297366004610c96565b61061a565b3480156102a7575f80fd5b506101f46102b6366004610c96565b610634565b3480156102c6575f80fd5b506101066102d5366004610c96565b6106f6565b6101f46102e8366004610c96565b610738565b3480156102f8575f80fd5b506101f4610307366004610c96565b6107a7565b348015610317575f80fd5b50610106610326366004610dfd565b610808565b6101f4610339366004610e5a565b6109d4565b5f610348826103c6565b1592915050565b5f82815260208181526040808320815160a08101835281546001600160a01b03908116808352600184015482169583019590955260028301549382019390935260038201546060820152600490910154608082015291908416146103b28561061a565b80156103bb5750805b925050505b92915050565b5f9081526020818152604091829020825160a08101845281546001600160a01b0390811680835260018401549091169382019390935260028201549381019390935260038101546060840152600401546080909201919091521590565b5f9081526020818152604091829020825160a08101845281546001600160a01b03908116825260018301541692810192909252600281015492820192909252600382015460608201526004909101546080909101819052151590565b61048b83833384610808565b610493575f80fd5b5f8381526020818152604091829020825160a08101845281546001600160a01b0390811682526001830154169281019290925260028101549282018390526003810154606083015260040154608082015290831061052f5780602001516001600160a01b03166108fc826040015190811502906040515f60405180830381858888f19350505050158015610529573d5f803e3d5ffd5b506105b1565b80602001516001600160a01b03166108fc8490811502906040515f60405180830381858888f19350505050158015610569573d5f803e3d5ffd5b50805f01516001600160a01b03166108fc84836040015161058a9190610ea1565b6040518115909202915f818181858888f193505050501580156105af573d5f803e3d5ffd5b505b5f8481526020819052604080822080546001600160a01b03199081168255600182018054909116905560028101839055600381018390556004018290555185917f3de43c9e481138453c3cfea2781e18a609abb6448556669b257edc7de710fd6491a250505050565b5f6106248261033e565b80156103c0575061034882610423565b61063d816106f6565b610645575f80fd5b5f8181526020819052604080822080546002820154925191936001600160a01b039091169280156108fc02929091818181858888f1935050505015801561068e573d5f803e3d5ffd5b505f8281526020819052604080822080546001600160a01b03199081168255600182018054909116905560028101839055600381018390556004018290555183917f74fb75c3de2cff5e8a78cf9b1f49a5bea60126b42ed45bb4b2b25b7da03e4d1b91a25050565b5f8061070183610423565b801561071d57505f838152602081905260409020600401544310155b905061072883610423565b80156107315750805b9392505050565b610742813361034f565b61074a575f80fd5b5f818152602081905260408120600201805434929061076a908490610eb4565b909155505060405134815281907f6f850cda6d6b2f5cca622bc2d4739e4ed917c12d29f9a92b9e6c127abe3984249060200160405180910390a250565b6107b1813361034f565b6107b9575f80fd5b5f81815260208190526040902060038101546107d59043610eb4565b600482015560405182907fd6461a3a92fd600fe23f236b2e25c2fd0c197a66b2f990989f0b210d578f4617905f90a25050565b5f848152602081905260408120600101546001600160a01b038481169116146108b05760405162461bcd60e51b815260206004820152604960248201527f63616e436c61696d3a206f726967696e20616e64206368616e6e656c735b636860448201527f616e6e656c49645d2e7265636569766572206164647265737365732061726520606482015268191a5999995c995b9d60ba1b608482015260a4015b60405180910390fd5b6109286109226108f08787604080513060208083019190915281830194909452606080820193909352815180820390930183526080019052805191012090565b7f19457468657265756d205369676e6564204d6573736167653a0a3332000000005f908152601c91909152603c902090565b83610aa1565b5f868152602081905260409020546001600160a01b039081169116146109c95760405162461bcd60e51b815260206004820152604a60248201527f63616e436c61696d3a206368616e6e656c2e73656e64657220616e642072657360448201527f746f7265642066726f6d2074686520736967206164647265737365732061726560648201526908191a5999995c995b9d60b21b608482015260a4016108a7565b506001949350505050565b6109dd836103c6565b6109e5575f80fd5b6040805160a081018252338082526001600160a01b03858116602080850182815234868801818152606088018a81525f60808a018181528e8252818752908b902099518a549089166001600160a01b0319918216178b55945160018b0180549190991695169490941790965551600288015593516003870155516004909501949094559351908152909186917f2f7cfc632227c054da7caaf75268353dba6206f53e9f7a547a193e66ab8c94dc910160405180910390a4505050565b5f805f80610aaf8686610ac9565b925092509250610abf8282610b12565b5090949350505050565b5f805f8351604103610b00576020840151604085015160608601515f1a610af288828585610bce565b955095509550505050610b0b565b505081515f91506002905b9250925092565b5f826003811115610b2557610b25610ec7565b03610b2e575050565b6001826003811115610b4257610b42610ec7565b03610b605760405163f645eedf60e01b815260040160405180910390fd5b6002826003811115610b7457610b74610ec7565b03610b955760405163fce698f760e01b8152600481018290526024016108a7565b6003826003811115610ba957610ba9610ec7565b03610bca576040516335e2f38360e21b8152600481018290526024016108a7565b5050565b5f80807f7fffffffffffffffffffffffffffffff5d576e7357a4501ddfe92f46681b20a0841115610c0757505f91506003905082610c8c565b604080515f808252602082018084528a905260ff891692820192909252606081018790526080810186905260019060a0016020604051602081039080840390855afa158015610c58573d5f803e3d5ffd5b5050604051601f1901519150506001600160a01b038116610c8357505f925060019150829050610c8c565b92505f91508190505b9450945094915050565b5f60208284031215610ca6575f80fd5b5035919050565b80356001600160a01b0381168114610cc3575f80fd5b919050565b5f8060408385031215610cd9575f80fd5b82359150610ce960208401610cad565b90509250929050565b5f8060408385031215610d03575f80fd5b50508035926020909101359150565b634e487b7160e01b5f52604160045260245ffd5b5f82601f830112610d35575f80fd5b813567ffffffffffffffff811115610d4f57610d4f610d12565b604051601f8201601f19908116603f0116810167ffffffffffffffff81118282101715610d7e57610d7e610d12565b604052818152838201602001851015610d95575f80fd5b816020850160208301375f918101602001919091529392505050565b5f805f60608486031215610dc3575f80fd5b8335925060208401359150604084013567ffffffffffffffff811115610de7575f80fd5b610df386828701610d26565b9150509250925092565b5f805f8060808587031215610e10575f80fd5b8435935060208501359250610e2760408601610cad565b9150606085013567ffffffffffffffff811115610e42575f80fd5b610e4e87828801610d26565b91505092959194509250565b5f805f60608486031215610e6c575f80fd5b83359250610e7c60208501610cad565b929592945050506040919091013590565b634e487b7160e01b5f52601160045260245ffd5b818103818111156103c0576103c0610e8d565b808201808211156103c0576103c0610e8d565b634e487b7160e01b5f52602160045260245ffdfea264697066735822122043ed2bc2634ce386f0123cd5b4a1e9d630b73afa6e66d6c8273cb70f5d0b533a64736f6c634300081a0033",
  "linkReferences": {},
  "deployedLinkReferences": {}
}