{
  "_format": "hh-sol-artifact-1",
  "contractName": "Unidirectional",
  "sourceName": "contracts/Unidirectional.sol",
  "abi": [
    {
      "inputs": [],
      "name": "ECDSAInvalidSignature",
      "type": "error"
    },
    {
      "inputs": [
        {
          "internalType": "uint256",
          "name": "length",
          "type": "uint256"
        }
      ],
      "name": "ECDSAInvalidSignatureLength",
      "type": "error"
    },
    {
      "inputs": [
        {
          "internalType": "bytes32",
          "name": "s",
          "type": "bytes32"
        }
      ],
      "name": "ECDSAInvalidSignatureS",
      "type": "error"
    },
    {
      "anonymous": false,
      "inputs": [
        {
          "indexed": true,
          "internalType": "bytes32",
          "name": "channelId",
          "type": "bytes32"
        }
      ],
      "name": "DidClaim",
      "type": "event"
    },
    {
      "anonymous": false,
      "inputs": [
        {
          "indexed": true,
          "internalType": "bytes32",
          "name": "channelId",
          "type": "bytes32"
        },
        {
          "indexed": false,
          "internalType": "uint256",
          "name": "deposit",
          "type": "uint256"
        }
      ],
      "name": "DidDeposit",
      "type": "event"
    },
    {
      "anonymous": false,
      "inputs": [
        {
          "indexed": true,
          "internalType": "bytes32",
          "name": "channelId",
          "type": "bytes32"
        },
        {
          "indexed": true,
          "internalType": "address",
          "name": "sender",
          "type": "address"
        },
        {
          "indexed": true,
          "internalType": "address",
          "name": "receiver",
          "type": "address"
        },
        {
          "indexed": false,
          "internalType": "uint256",
          "name": "value",
          "type": "uint256"
        }
      ],
      "name": "DidOpen",
      "type": "event"
    },
    {
      "anonymous": false,
      "inputs": [
        {
          "indexed": true,
          "internalType": "bytes32",
          "name": "channelId",
          "type": "bytes32"
        }
      ],
      "name": "DidSettle",
      "type": "event"
    },
    {
      "anonymous": false,
      "inputs": [
        {
          "indexed": true,
          "internalType": "bytes32",
          "name": "channelId",
          "type": "bytes32"
        }
      ],
      "name": "DidStartSettling",
      "type": "event"
    },
    {
      "inputs": [
        {
          "internalType": "bytes32",
          "name": "channelId",
          "type": "bytes32"
        },
        {
          "internalType": "uint256",
          "name": "payment",
          "type": "uint256"
        },
        {
          "internalType": "address",
          "name": "origin",
          "type": "address"
        },
        {
          "internalType": "bytes",
          "name": "signature",
          "type": "bytes"
        }
      ],
      "name": "canClaim",
      "outputs": [
        {
          "internalType": "bool",
          "name": "",
          "type": "bool"
        }
      ],
      "stateMutability": "view",
      "type": "function"
    },
    {
      "inputs": [
        {
          "internalType": "bytes32",
          "name": "channelId",
          "type": "bytes32"
        },
        {
          "internalType": "address",
          "name": "origin",
          "type": "address"
        }
      ],
      "name": "canDeposit",
      "outputs": [
        {
          "internalType": "bool",
          "name": "",
          "type": "bool"
        }
      ],
      "stateMutability": "view",
      "type": "function"
    },
    {
      "inputs": [
        {
          "internalType": "bytes32",
          "name": "channelId",
          "type": "bytes32"
        }
      ],
      "name": "canSettle",
      "outputs": [
        {
          "internalType": "bool",
          "name": "",
          "type": "bool"
        }
      ],
      "stateMutability": "view",
      "type": "function"
    },
    {
      "inputs": [
        {
          "internalType": "bytes32",
          "name": "channelId",
          "type": "bytes32"
        },
        {
          "internalType": "address",
          "name": "origin",
          "type": "address"
        }
      ],
      "name": "canStartSettling",
      "outputs": [
        {
          "internalType": "bool",
          "name": "",
          "type": "bool"
        }
      ],
      "stateMutability": "view",
      "type": "function"
    },
    {
      "inputs": [
        {
          "internalType": "bytes32",
          "name": "",
          "type": "bytes32"
        }
      ],
      "name": "channels",
      "outputs": [
        {
          "internalType": "address payable",
          "name": "sender",
          "type": "address"
        },
        {
          "internalType": "address payable",
          "name": "receiver",
          "type": "address"
        },
        {
          "internalType": "uint256",
          "name": "value",
          "type": "uint256"
        },
        {
          "internalType": "uint256",
          "name": "settlingPeriod",
          "type": "uint256"
        },
        {
          "internalType": "uint256",
          "name": "settlingUntil",
          "type": "uint256"
        }
      ],
      "stateMutability": "view",
      "type": "function"
    },
    {
      "inputs": [
        {
          "internalType": "bytes32",
          "name": "channelId",
          "type": "bytes32"
        },
        {
          "internalType": "uint256",
          "name": "payment",
          "type": "uint256"
        },
        {
          "internalType": "bytes",
          "name": "signature",
          "type": "bytes"
        }
      ],
      "name": "claim",
      "outputs": [],
      "stateMutability": "nonpayable",
      "type": "function"
    },
    {
      "inputs": [
        {
          "internalType": "bytes32",
          "name": "channelId",
          "type": "bytes32"
        }
      ],
      "name": "deposit",
      "outputs": [],
      "stateMutability": "payable",
      "type": "function"
    },
    {
      "inputs": [
        {
          "internalType": "bytes32",
          "name": "channelId",
          "type": "bytes32"
        }
      ],
      "name": "isAbsent",
      "outputs": [
        {
          "internalType": "bool",
          "name": "",
          "type": "bool"
        }
      ],
      "stateMutability": "view",
      "type": "function"
    },
    {
      "inputs": [
        {
          "internalType": "bytes32",
          "name": "channelId",
          "type": "bytes32"
        }
      ],
      "name": "isOpen",
      "outputs": [
        {
          "internalType": "bool",
          "name": "",
          "type": "bool"
        }
      ],
      "stateMutability": "view",
      "type": "function"
    },
    {
      "inputs": [
        {
          "internalType": "bytes32",
          "name": "channelId",
          "type": "bytes32"
        }
      ],
      "name": "isPresent",
      "outputs": [
        {
          "internalType": "bool",
          "name": "",
          "type": "bool"
        }
      ],
      "stateMutability": "view",
      "type": "function"
    },
    {
      "inputs": [
        {
          "internalType": "bytes32",
          "name": "channelId",
          "type": "bytes32"
        }
      ],
      "name": "isSettling",
      "outputs": [
        {
          "internalType": "bool",
          "name": "",
          "type": "bool"
        }
      ],
      "stateMutability": "view",
      "type": "function"
    },
    {
      "inputs": [
        {
          "internalType": "bytes32",
          "name": "channelId",
          "type": "bytes32"
        },
        {
          "internalType": "address",
          "name": "receiver",
          "type": "address"
        },
        {
          "internalType": "uint256",
          "name": "settlingPeriod",
          "type": "uint256"
        }
      ],
      "name": "open",
      "outputs": [],
      "stateMutability": "payable",
      "type": "function"
    },
    {
      "inputs": [
        {
          "internalType": "bytes32",
          "name": "channelId",
          "type": "bytes32"
        },
        {
          "internalType": "uint256",
          "name": "payment",
          "type": "uint256"
        }
      ],
      "name": "paymentDigest",
      "outputs": [
        {
          "internalType": "bytes32",
          "name": "",
          "type": "bytes32"
        }
      ],
      "stateMutability": "view",
      "type": "function"
    },
    {
      "inputs": [
        {
          "internalType": "bytes32",
          "name": "channelId",
          "type": "bytes32"
        }
      ],
      "name": "settle",
      "outputs": [],
      "stateMutability": "nonpayable",
      "type": "function"
    },
    {
      "inputs": [
        {
          "internalType": "bytes32",
          "name": "channelId",
          "type": "bytes32"
        }
      ],
      "name": "startSettling",
      "outputs": [],
      "stateMutability": "nonpayable",
      "type": "function"
    }
  ],
  "bytecode": "0x6080604052348015600f57600080fd5b50610f4e8061001f6000396000f3fe6080604052600436106100e75760003560e01c80637a7ebd7b1161008a578063b214faa511610059578063b214faa5146102ba578063e62eea47146102cd578063ec8be5b9146102ed578063fd745bce1461030d57600080fd5b80637a7ebd7b146101d15780637c35be7a1461025a578063987757dd1461027a578063ad3790891461029a57600080fd5b80634722361c116100c65780634722361c14610121578063605466021461016f5780636683f9ae1461018f5780637964ea87146101af57600080fd5b8062f31e76146100ec5780632f8f0c921461012157806341b6fcf714610141575b600080fd5b3480156100f857600080fd5b5061010c610107366004610c85565b610320565b60405190151581526020015b60405180910390f35b34801561012d57600080fd5b5061010c61013c366004610cba565b610332565b34801561014d57600080fd5b5061016161015c366004610ce6565b6103aa565b604051908152602001610118565b34801561017b57600080fd5b5061010c61018a366004610c85565b6103f7565b34801561019b57600080fd5b5061010c6101aa366004610c85565b610455565b3480156101bb57600080fd5b506101cf6101ca366004610dad565b6104b2565b005b3480156101dd57600080fd5b506102276101ec366004610c85565b600060208190529081526040902080546001820154600283015460038401546004909401546001600160a01b03938416949390921692909185565b604080516001600160a01b039687168152959094166020860152928401919091526060830152608082015260a001610118565b34801561026657600080fd5b5061010c610275366004610c85565b61065a565b34801561028657600080fd5b506101cf610295366004610c85565b610675565b3480156102a657600080fd5b5061010c6102b5366004610c85565b61073c565b6101cf6102c8366004610c85565b6107c4565b3480156102d957600080fd5b506101cf6102e8366004610c85565b610835565b3480156102f957600080fd5b5061010c610308366004610dfd565b610899565b6101cf61031b366004610e5e565b61093c565b600061032b826103f7565b1592915050565b600082815260208181526040808320815160a08101835281546001600160a01b03908116808352600184015482169583019590955260028301549382019390935260038201546060820152600490910154608082015291908416146103968561065a565b801561039f5750805b925050505b92915050565b6040516bffffffffffffffffffffffff193060601b166020820152603481018390526054810182905260009060740160405160208183030381529060405280519060200120905092915050565b60009081526020818152604091829020825160a08101845281546001600160a01b0390811680835260018401549091169382019390935260028201549381019390935260038101546060840152600401546080909201919091521590565b60009081526020818152604091829020825160a08101845281546001600160a01b03908116825260018301541692810192909252600281015492820192909252600382015460608201526004909101546080909101819052151590565b6104be83833384610899565b6104c757600080fd5b60008381526020818152604091829020825160a08101845281546001600160a01b039081168252600183015416928101929092526002810154928201839052600381015460608301526004015460808201529083106105675780602001516001600160a01b03166108fc82604001519081150290604051600060405180830381858888f19350505050158015610561573d6000803e3d6000fd5b506105f0565b80602001516001600160a01b03166108fc849081150290604051600060405180830381858888f193505050501580156105a4573d6000803e3d6000fd5b5080600001516001600160a01b03166108fc8483604001516105c69190610eaa565b6040518115909202916000818181858888f193505050501580156105ee573d6000803e3d6000fd5b505b60008481526020819052604080822080546001600160a01b03199081168255600182018054909116905560028101839055600381018390556004018290555185917f3de43c9e481138453c3cfea2781e18a609abb6448556669b257edc7de710fd6491a250505050565b600061066582610320565b80156103a4575061032b82610455565b61067e8161073c565b61068757600080fd5b60008181526020819052604080822080546002820154925191936001600160a01b039091169280156108fc02929091818181858888f193505050501580156106d3573d6000803e3d6000fd5b5060008281526020819052604080822080546001600160a01b03199081168255600182018054909116905560028101839055600381018390556004018290555183917f74fb75c3de2cff5e8a78cf9b1f49a5bea60126b42ed45bb4b2b25b7da03e4d1b91a25050565b600081815260208181526040808320815160a08101835281546001600160a01b03908116825260018301541693810193909352600281015491830191909152600381015460608301526004015460808201528161079884610455565b80156107a8575081608001514310155b90506107b384610455565b80156107bc5750805b949350505050565b6107ce8133610332565b6107d757600080fd5b600081815260208190526040812060020180543492906107f8908490610ebd565b909155505060405134815281907f6f850cda6d6b2f5cca622bc2d4739e4ed917c12d29f9a92b9e6c127abe3984249060200160405180910390a250565b61083f8133610332565b61084857600080fd5b600081815260208190526040902060038101546108659043610ebd565b600482015560405182907fd6461a3a92fd600fe23f236b2e25c2fd0c197a66b2f990989f0b210d578f461790600090a25050565b600084815260208181526040808320815160a08101835281546001600160a01b039081168252600183015481169482018590526002830154938201939093526003820154606082015260049091015460808201529190851614826108fd8888610a0b565b9050600061090b8287610a7d565b6001600160a01b031684600001516001600160a01b031614905082801561092f5750805b9998505050505050505050565b610945836103f7565b61094e57600080fd5b6040805160a081018252338082526001600160a01b03858116602080850182815234868801818152606088018a8152600060808a018181528e8252818752908b902099518a549089166001600160a01b0319918216178b55945160018b0180549190991695169490941790965551600288015593516003870155516004909501949094559351908152909186917f2f7cfc632227c054da7caaf75268353dba6206f53e9f7a547a193e66ab8c94dc910160405180910390a4505050565b60408051808201909152601c81527f19457468657265756d205369676e6564204d6573736167653a0a333200000000602082015260009080610a4d85856103aa565b604051602001610a5e929190610ed0565b6040516020818303038152906040528051906020012091505092915050565b600080600080610a8d8686610aa7565b925092509250610a9d8282610af4565b5090949350505050565b60008060008351604103610ae15760208401516040850151606086015160001a610ad388828585610bb6565b955095509550505050610aed565b50508151600091506002905b9250925092565b6000826003811115610b0857610b08610f02565b03610b11575050565b6001826003811115610b2557610b25610f02565b03610b435760405163f645eedf60e01b815260040160405180910390fd5b6002826003811115610b5757610b57610f02565b03610b7d5760405163fce698f760e01b8152600481018290526024015b60405180910390fd5b6003826003811115610b9157610b91610f02565b03610bb2576040516335e2f38360e21b815260048101829052602401610b74565b5050565b600080807f7fffffffffffffffffffffffffffffff5d576e7357a4501ddfe92f46681b20a0841115610bf15750600091506003905082610c7b565b604080516000808252602082018084528a905260ff891692820192909252606081018790526080810186905260019060a0016020604051602081039080840390855afa158015610c45573d6000803e3d6000fd5b5050604051601f1901519150506001600160a01b038116610c7157506000925060019150829050610c7b565b9250600091508190505b9450945094915050565b600060208284031215610c9757600080fd5b5035919050565b80356001600160a01b0381168114610cb557600080fd5b919050565b60008060408385031215610ccd57600080fd5b82359150610cdd60208401610c9e565b90509250929050565b60008060408385031215610cf957600080fd5b50508035926020909101359150565b634e487b7160e01b600052604160045260246000fd5b600082601f830112610d2f57600080fd5b813567ffffffffffffffff811115610d4957610d49610d08565b604051601f8201601f19908116603f0116810167ffffffffffffffff81118282101715610d7857610d78610d08565b604052818152838201602001851015610d9057600080fd5b816020850160208301376000918101602001919091529392505050565b600080600060608486031215610dc257600080fd5b8335925060208401359150604084013567ffffffffffffffff811115610de757600080fd5b610df386828701610d1e565b9150509250925092565b60008060008060808587031215610e1357600080fd5b8435935060208501359250610e2a60408601610c9e565b9150606085013567ffffffffffffffff811115610e4657600080fd5b610e5287828801610d1e565b91505092959194509250565b600080600060608486031215610e7357600080fd5b83359250610e8360208501610c9e565b929592945050506040919091013590565b634e487b7160e01b600052601160045260246000fd5b818103818111156103a4576103a4610e94565b808201808211156103a4576103a4610e94565b6000835160005b81811015610ef15760208187018101518583015201610ed7565b509190910191825250602001919050565b634e487b7160e01b600052602160045260246000fdfea264697066735822122076ca85032c94a8b3ea00094bcd523f9eeea72478e88e98495549a61528f215ae64736f6c634300081a0033",
  "linkReferences": {},
  "deployedLinkReferences": {}
}