{
  "contractName": "TokenUnidirectional",
  "abi": [
    {
      "inputs": [],
      "name": "ECDSAInvalidSignature",
      "type": "error"
    },
    {
      "inputs": [
        {
          "internalType": "uint256",
          "name": "length",
          "type": "uint256"
        }
      ],
      "name": "ECDSAInvalidSignatureLength",
      "type": "error"
    },
    {
      "inputs": [
        {
          "internalType": "bytes32",
          "name": "s",
          "type": "bytes32"
        }
      ],
      "name": "ECDSAInvalidSignatureS",
      "type": "error"
    },
    {
      "anonymous": false,
      "inputs": [
        {
          "indexed": true,
          "internalType": "bytes32",
          "name": "channelId",
          "type": "bytes32"
        }
      ],
      "name": "DidClaim",
      "type": "event"
    },
    {
      "anonymous": false,
      "inputs": [
        {
          "indexed": true,
          "internalType": "bytes32",
          "name": "channelId",
          "type": "bytes32"
        },
        {
          "indexed": false,
          "internalType": "uint256",
          "name": "deposit",
          "type": "uint256"
        }
      ],
      "name": "DidDeposit",
      "type": "event"
    },
    {
      "anonymous": false,
      "inputs": [
        {
          "indexed": true,
          "internalType": "bytes32",
          "name": "channelId",
          "type": "bytes32"
        },
        {
          "indexed": true,
          "internalType": "address",
          "name": "sender",
          "type": "address"
        },
        {
          "indexed": true,
          "internalType": "address",
          "name": "receiver",
          "type": "address"
        },
        {
          "indexed": false,
          "internalType": "uint256",
          "name": "value",
          "type": "uint256"
        },
        {
          "indexed": false,
          "internalType": "address",
          "name": "tokenContract",
          "type": "address"
        }
      ],
      "name": "DidOpen",
      "type": "event"
    },
    {
      "anonymous": false,
      "inputs": [
        {
          "indexed": true,
          "internalType": "bytes32",
          "name": "channelId",
          "type": "bytes32"
        }
      ],
      "name": "DidSettle",
      "type": "event"
    },
    {
      "anonymous": false,
      "inputs": [
        {
          "indexed": true,
          "internalType": "bytes32",
          "name": "channelId",
          "type": "bytes32"
        }
      ],
      "name": "DidStartSettling",
      "type": "event"
    },
    {
      "inputs": [
        {
          "internalType": "bytes32",
          "name": "",
          "type": "bytes32"
        }
      ],
      "name": "channels",
      "outputs": [
        {
          "internalType": "address",
          "name": "sender",
          "type": "address"
        },
        {
          "internalType": "address",
          "name": "receiver",
          "type": "address"
        },
        {
          "internalType": "uint256",
          "name": "value",
          "type": "uint256"
        },
        {
          "internalType": "uint256",
          "name": "settlingPeriod",
          "type": "uint256"
        },
        {
          "internalType": "uint256",
          "name": "settlingUntil",
          "type": "uint256"
        },
        {
          "internalType": "address",
          "name": "tokenContract",
          "type": "address"
        }
      ],
      "stateMutability": "view",
      "type": "function"
    },
    {
      "inputs": [
        {
          "internalType": "bytes32",
          "name": "channelId",
          "type": "bytes32"
        },
        {
          "internalType": "address",
          "name": "receiver",
          "type": "address"
        },
        {
          "internalType": "uint256",
          "name": "settlingPeriod",
          "type": "uint256"
        },
        {
          "internalType": "address",
          "name": "tokenContract",
          "type": "address"
        },
        {
          "internalType": "uint256",
          "name": "value",
          "type": "uint256"
        }
      ],
      "name": "open",
      "outputs": [],
      "stateMutability": "nonpayable",
      "type": "function"
    },
    {
      "inputs": [
        {
          "internalType": "bytes32",
          "name": "channelId",
          "type": "bytes32"
        },
        {
          "internalType": "address",
          "name": "origin",
          "type": "address"
        }
      ],
      "name": "canDeposit",
      "outputs": [
        {
          "internalType": "bool",
          "name": "",
          "type": "bool"
        }
      ],
      "stateMutability": "view",
      "type": "function"
    },
    {
      "inputs": [
        {
          "internalType": "bytes32",
          "name": "channelId",
          "type": "bytes32"
        },
        {
          "internalType": "uint256",
          "name": "value",
          "type": "uint256"
        }
      ],
      "name": "deposit",
      "outputs": [],
      "stateMutability": "nonpayable",
      "type": "function"
    },
    {
      "inputs": [
        {
          "internalType": "bytes32",
          "name": "channelId",
          "type": "bytes32"
        },
        {
          "internalType": "address",
          "name": "origin",
          "type": "address"
        }
      ],
      "name": "canStartSettling",
      "outputs": [
        {
          "internalType": "bool",
          "name": "",
          "type": "bool"
        }
      ],
      "stateMutability": "view",
      "type": "function"
    },
    {
      "inputs": [
        {
          "internalType": "bytes32",
          "name": "channelId",
          "type": "bytes32"
        }
      ],
      "name": "startSettling",
      "outputs": [],
      "stateMutability": "nonpayable",
      "type": "function"
    },
    {
      "inputs": [
        {
          "internalType": "bytes32",
          "name": "channelId",
          "type": "bytes32"
        }
      ],
      "name": "canSettle",
      "outputs": [
        {
          "internalType": "bool",
          "name": "",
          "type": "bool"
        }
      ],
      "stateMutability": "view",
      "type": "function"
    },
    {
      "inputs": [
        {
          "internalType": "bytes32",
          "name": "channelId",
          "type": "bytes32"
        }
      ],
      "name": "settle",
      "outputs": [],
      "stateMutability": "nonpayable",
      "type": "function"
    },
    {
      "inputs": [
        {
          "internalType": "bytes32",
          "name": "channelId",
          "type": "bytes32"
        },
        {
          "internalType": "uint256",
          "name": "payment",
          "type": "uint256"
        },
        {
          "internalType": "address",
          "name": "origin",
          "type": "address"
        },
        {
          "internalType": "bytes",
          "name": "signature",
          "type": "bytes"
        }
      ],
      "name": "canClaim",
      "outputs": [
        {
          "internalType": "bool",
          "name": "",
          "type": "bool"
        }
      ],
      "stateMutability": "view",
      "type": "function"
    },
    {
      "inputs": [
        {
          "internalType": "bytes32",
          "name": "channelId",
          "type": "bytes32"
        },
        {
          "internalType": "uint256",
          "name": "payment",
          "type": "uint256"
        },
        {
          "internalType": "bytes",
          "name": "signature",
          "type": "bytes"
        }
      ],
      "name": "claim",
      "outputs": [],
      "stateMutability": "nonpayable",
      "type": "function"
    },
    {
      "inputs": [
        {
          "internalType": "bytes32",
          "name": "channelId",
          "type": "bytes32"
        }
      ],
      "name": "isAbsent",
      "outputs": [
        {
          "internalType": "bool",
          "name": "",
          "type": "bool"
        }
      ],
      "stateMutability": "view",
      "type": "function"
    },
    {
      "inputs": [
        {
          "internalType": "bytes32",
          "name": "channelId",
          "type": "bytes32"
        }
      ],
      "name": "isPresent",
      "outputs": [
        {
          "internalType": "bool",
          "name": "",
          "type": "bool"
        }
      ],
      "stateMutability": "view",
      "type": "function"
    },
    {
      "inputs": [
        {
          "internalType": "bytes32",
          "name": "channelId",
          "type": "bytes32"
        }
      ],
      "name": "isSettling",
      "outputs": [
        {
          "internalType": "bool",
          "name": "",
          "type": "bool"
        }
      ],
      "stateMutability": "view",
      "type": "function"
    },
    {
      "inputs": [
        {
          "internalType": "bytes32",
          "name": "channelId",
          "type": "bytes32"
        }
      ],
      "name": "isOpen",
      "outputs": [
        {
          "internalType": "bool",
          "name": "",
          "type": "bool"
        }
      ],
      "stateMutability": "view",
      "type": "function"
    },
    {
      "inputs": [
        {
          "internalType": "bytes32",
          "name": "channelId",
          "type": "bytes32"
        },
        {
          "internalType": "uint256",
          "name": "payment",
          "type": "uint256"
        },
        {
          "internalType": "address",
          "name": "tokenContract",
          "type": "address"
        }
      ],
      "name": "paymentDigest",
      "outputs": [
        {
          "internalType": "bytes32",
          "name": "",
          "type": "bytes32"
        }
      ],
      "stateMutability": "view",
      "type": "function"
    }
  ],
  "bytecode": "0x608060405234801561000f575f80fd5b506122bb8061001d5f395ff3fe608060405234801561000f575f80fd5b50600436106100f2575f3560e01c80637964ea8711610095578063ad37908911610064578063ad379089146102bb578063dee6c895146102eb578063e62eea471461031b578063ec8be5b914610337576100f2565b80637964ea871461021e5780637a7ebd7b1461023a5780637c35be7a1461026f578063987757dd1461029f576100f2565b80632f8f0c92116100d15780632f8f0c921461015e5780634722361c1461018e57806360546602146101be5780636683f9ae146101ee576100f2565b8062f31e76146100f657806303e8c9fa146101265780631de26e1614610142575b5f80fd5b610110600480360381019061010b919061162e565b610367565b60405161011d9190611673565b60405180910390f35b610140600480360381019061013b9190611719565b610379565b005b61015c60048036038101906101579190611790565b610661565b005b610178600480360381019061017391906117ce565b6107f8565b6040516101859190611673565b60405180910390f35b6101a860048036038101906101a391906117ce565b61087c565b6040516101b59190611673565b60405180910390f35b6101d860048036038101906101d3919061162e565b610900565b6040516101e59190611673565b60405180910390f35b6102086004803603810190610203919061162e565b61096d565b6040516102159190611673565b60405180910390f35b61023860048036038101906102339190611948565b610991565b005b610254600480360381019061024f919061162e565b610da2565b604051610266969594939291906119d2565b60405180910390f35b6102896004803603810190610284919061162e565b610e36565b6040516102969190611673565b60405180910390f35b6102b960048036038101906102b4919061162e565b610e59565b005b6102d560048036038101906102d0919061162e565b611086565b6040516102e29190611673565b60405180910390f35b61030560048036038101906103009190611a31565b6110c0565b6040516103129190611a90565b60405180910390f35b6103356004803603810190610330919061162e565b6110f7565b005b610351600480360381019061034c9190611aa9565b61119c565b60405161035e9190611673565b60405180910390f35b5f61037182610900565b159050919050565b61038285610900565b6103c1576040517f08c379a00000000000000000000000000000000000000000000000000000000081526004016103b890611ba9565b60405180910390fd5b5f8290508073ffffffffffffffffffffffffffffffffffffffff166323b872dd3330856040518463ffffffff1660e01b815260040161040293929190611bc7565b6020604051808303815f875af115801561041e573d5f803e3d5ffd5b505050506040513d601f19601f820116820180604052508101906104429190611c26565b610481576040517f08c379a000000000000000000000000000000000000000000000000000000000815260040161047890611cc1565b60405180910390fd5b6040518060c001604052803373ffffffffffffffffffffffffffffffffffffffff1681526020018673ffffffffffffffffffffffffffffffffffffffff1681526020018381526020018581526020015f81526020018473ffffffffffffffffffffffffffffffffffffffff168152505f808881526020019081526020015f205f820151815f015f6101000a81548173ffffffffffffffffffffffffffffffffffffffff021916908373ffffffffffffffffffffffffffffffffffffffff1602179055506020820151816001015f6101000a81548173ffffffffffffffffffffffffffffffffffffffff021916908373ffffffffffffffffffffffffffffffffffffffff16021790555060408201518160020155606082015181600301556080820151816004015560a0820151816005015f6101000a81548173ffffffffffffffffffffffffffffffffffffffff021916908373ffffffffffffffffffffffffffffffffffffffff1602179055509050508473ffffffffffffffffffffffffffffffffffffffff163373ffffffffffffffffffffffffffffffffffffffff16877f8f7d1ea1dfb1f5cc2f05d16f7712e0b73c0b172edb09bad6e6fb5a8015cadc788587604051610651929190611cdf565b60405180910390a4505050505050565b61066b82336107f8565b6106aa576040517f08c379a00000000000000000000000000000000000000000000000000000000081526004016106a190611d50565b60405180910390fd5b5f805f8481526020019081526020015f2090505f816005015f9054906101000a900473ffffffffffffffffffffffffffffffffffffffff1690508073ffffffffffffffffffffffffffffffffffffffff166323b872dd3330866040518463ffffffff1660e01b815260040161072193929190611bc7565b6020604051808303815f875af115801561073d573d5f803e3d5ffd5b505050506040513d601f19601f820116820180604052508101906107619190611c26565b6107a0576040517f08c379a000000000000000000000000000000000000000000000000000000000815260040161079790611cc1565b60405180910390fd5b82826002015f8282546107b39190611d9b565b92505081905550837f6f850cda6d6b2f5cca622bc2d4739e4ed917c12d29f9a92b9e6c127abe398424846040516107ea9190611dce565b60405180910390a250505050565b5f805f808581526020019081526020015f2090505f8373ffffffffffffffffffffffffffffffffffffffff16825f015f9054906101000a900473ffffffffffffffffffffffffffffffffffffffff1673ffffffffffffffffffffffffffffffffffffffff1614905061086985610e36565b80156108725750805b9250505092915050565b5f805f808581526020019081526020015f2090505f8373ffffffffffffffffffffffffffffffffffffffff16825f015f9054906101000a900473ffffffffffffffffffffffffffffffffffffffff1673ffffffffffffffffffffffffffffffffffffffff161490506108ed85610e36565b80156108f65750805b9250505092915050565b5f805f808481526020019081526020015f2090505f73ffffffffffffffffffffffffffffffffffffffff16815f015f9054906101000a900473ffffffffffffffffffffffffffffffffffffffff1673ffffffffffffffffffffffffffffffffffffffff1614915050919050565b5f805f808481526020019081526020015f2090505f81600401541415915050919050565b61099d8383338461119c565b6109dc576040517f08c379a00000000000000000000000000000000000000000000000000000000081526004016109d390611e31565b60405180910390fd5b5f805f8581526020019081526020015f2090505f816005015f9054906101000a900473ffffffffffffffffffffffffffffffffffffffff16905081600201548410610b07578073ffffffffffffffffffffffffffffffffffffffff1663a9059cbb836001015f9054906101000a900473ffffffffffffffffffffffffffffffffffffffff1684600201546040518363ffffffff1660e01b8152600401610a83929190611e4f565b6020604051808303815f875af1158015610a9f573d5f803e3d5ffd5b505050506040513d601f19601f82011682018060405250810190610ac39190611c26565b610b02576040517f08c379a0000000000000000000000000000000000000000000000000000000008152600401610af990611ee6565b60405180910390fd5b610cd5565b8073ffffffffffffffffffffffffffffffffffffffff1663a9059cbb836001015f9054906101000a900473ffffffffffffffffffffffffffffffffffffffff16866040518363ffffffff1660e01b8152600401610b65929190611e4f565b6020604051808303815f875af1158015610b81573d5f803e3d5ffd5b505050506040513d601f19601f82011682018060405250810190610ba59190611c26565b610be4576040517f08c379a0000000000000000000000000000000000000000000000000000000008152600401610bdb90611ee6565b60405180910390fd5b5f848360020154610bf59190611f04565b90508173ffffffffffffffffffffffffffffffffffffffff1663a9059cbb845f015f9054906101000a900473ffffffffffffffffffffffffffffffffffffffff16836040518363ffffffff1660e01b8152600401610c54929190611e4f565b6020604051808303815f875af1158015610c70573d5f803e3d5ffd5b505050506040513d601f19601f82011682018060405250810190610c949190611c26565b610cd3576040517f08c379a0000000000000000000000000000000000000000000000000000000008152600401610cca90611fa7565b60405180910390fd5b505b5f808681526020019081526020015f205f8082015f6101000a81549073ffffffffffffffffffffffffffffffffffffffff0219169055600182015f6101000a81549073ffffffffffffffffffffffffffffffffffffffff0219169055600282015f9055600382015f9055600482015f9055600582015f6101000a81549073ffffffffffffffffffffffffffffffffffffffff02191690555050847f3de43c9e481138453c3cfea2781e18a609abb6448556669b257edc7de710fd6460405160405180910390a25050505050565b5f602052805f5260405f205f91509050805f015f9054906101000a900473ffffffffffffffffffffffffffffffffffffffff1690806001015f9054906101000a900473ffffffffffffffffffffffffffffffffffffffff1690806002015490806003015490806004015490806005015f9054906101000a900473ffffffffffffffffffffffffffffffffffffffff16905086565b5f610e4082610367565b8015610e525750610e508261096d565b155b9050919050565b610e6281611086565b610ea1576040517f08c379a0000000000000000000000000000000000000000000000000000000008152600401610e989061200f565b60405180910390fd5b5f805f8381526020019081526020015f2090505f816005015f9054906101000a900473ffffffffffffffffffffffffffffffffffffffff1690508073ffffffffffffffffffffffffffffffffffffffff1663a9059cbb835f015f9054906101000a900473ffffffffffffffffffffffffffffffffffffffff1684600201546040518363ffffffff1660e01b8152600401610f3c929190611e4f565b6020604051808303815f875af1158015610f58573d5f803e3d5ffd5b505050506040513d601f19601f82011682018060405250810190610f7c9190611c26565b610fbb576040517f08c379a0000000000000000000000000000000000000000000000000000000008152600401610fb290611fa7565b60405180910390fd5b5f808481526020019081526020015f205f8082015f6101000a81549073ffffffffffffffffffffffffffffffffffffffff0219169055600182015f6101000a81549073ffffffffffffffffffffffffffffffffffffffff0219169055600282015f9055600382015f9055600482015f9055600582015f6101000a81549073ffffffffffffffffffffffffffffffffffffffff02191690555050827f74fb75c3de2cff5e8a78cf9b1f49a5bea60126b42ed45bb4b2b25b7da03e4d1b60405160405180910390a2505050565b5f805f808481526020019081526020015f2090505f816004015443101590506110ae8461096d565b80156110b75750805b92505050919050565b5f308484846040516020016110d894939291906120b2565b6040516020818303038152906040528051906020012090509392505050565b611101813361087c565b611140576040517f08c379a000000000000000000000000000000000000000000000000000000000815260040161113790612149565b60405180910390fd5b5f805f8381526020019081526020015f2090508060030154436111639190611d9b565b8160040181905550817fd6461a3a92fd600fe23f236b2e25c2fd0c197a66b2f990989f0b210d578f461760405160405180910390a25050565b5f805f808781526020019081526020015f2090505f816001015f9054906101000a900473ffffffffffffffffffffffffffffffffffffffff1673ffffffffffffffffffffffffffffffffffffffff168573ffffffffffffffffffffffffffffffffffffffff161490505f6112348888856005015f9054906101000a900473ffffffffffffffffffffffffffffffffffffffff166112ab565b90505f6112418287611322565b73ffffffffffffffffffffffffffffffffffffffff16845f015f9054906101000a900473ffffffffffffffffffffffffffffffffffffffff1673ffffffffffffffffffffffffffffffffffffffff1614905082801561129d5750805b945050505050949350505050565b5f806040518060400160405280601c81526020017f19457468657265756d205369676e6564204d6573736167653a0a3332000000008152509050806112f18686866110c0565b6040516020016113029291906121d3565b604051602081830303815290604052805190602001209150509392505050565b5f805f80611330868661134c565b92509250925061134082826113a1565b82935050505092915050565b5f805f604184510361138c575f805f602087015192506040870151915060608701515f1a905061137e88828585611503565b95509550955050505061139a565b5f600285515f1b9250925092505b9250925092565b5f60038111156113b4576113b36121fa565b5b8260038111156113c7576113c66121fa565b5b03156114ff57600160038111156113e1576113e06121fa565b5b8260038111156113f4576113f36121fa565b5b0361142b576040517ff645eedf00000000000000000000000000000000000000000000000000000000815260040160405180910390fd5b6002600381111561143f5761143e6121fa565b5b826003811115611452576114516121fa565b5b0361149657805f1c6040517ffce698f700000000000000000000000000000000000000000000000000000000815260040161148d9190611dce565b60405180910390fd5b6003808111156114a9576114a86121fa565b5b8260038111156114bc576114bb6121fa565b5b036114fe57806040517fd78bce0c0000000000000000000000000000000000000000000000000000000081526004016114f59190611a90565b60405180910390fd5b5b5050565b5f805f7f7fffffffffffffffffffffffffffffff5d576e7357a4501ddfe92f46681b20a0845f1c111561153f575f6003859250925092506115e0565b5f6001888888886040515f81526020016040526040516115629493929190612242565b6020604051602081039080840390855afa158015611582573d5f803e3d5ffd5b5050506020604051035190505f73ffffffffffffffffffffffffffffffffffffffff168173ffffffffffffffffffffffffffffffffffffffff16036115d3575f60015f801b935093509350506115e0565b805f805f1b935093509350505b9450945094915050565b5f604051905090565b5f80fd5b5f80fd5b5f819050919050565b61160d816115fb565b8114611617575f80fd5b50565b5f8135905061162881611604565b92915050565b5f60208284031215611643576116426115f3565b5b5f6116508482850161161a565b91505092915050565b5f8115159050919050565b61166d81611659565b82525050565b5f6020820190506116865f830184611664565b92915050565b5f73ffffffffffffffffffffffffffffffffffffffff82169050919050565b5f6116b58261168c565b9050919050565b6116c5816116ab565b81146116cf575f80fd5b50565b5f813590506116e0816116bc565b92915050565b5f819050919050565b6116f8816116e6565b8114611702575f80fd5b50565b5f81359050611713816116ef565b92915050565b5f805f805f60a08688031215611732576117316115f3565b5b5f61173f8882890161161a565b9550506020611750888289016116d2565b945050604061176188828901611705565b9350506060611772888289016116d2565b925050608061178388828901611705565b9150509295509295909350565b5f80604083850312156117a6576117a56115f3565b5b5f6117b38582860161161a565b92505060206117c485828601611705565b9150509250929050565b5f80604083850312156117e4576117e36115f3565b5b5f6117f18582860161161a565b9250506020611802858286016116d2565b9150509250929050565b5f80fd5b5f80fd5b5f601f19601f8301169050919050565b7f4e487b71000000000000000000000000000000000000000000000000000000005f52604160045260245ffd5b61185a82611814565b810181811067ffffffffffffffff8211171561187957611878611824565b5b80604052505050565b5f61188b6115ea565b90506118978282611851565b919050565b5f67ffffffffffffffff8211156118b6576118b5611824565b5b6118bf82611814565b9050602081019050919050565b828183375f83830152505050565b5f6118ec6118e78461189c565b611882565b90508281526020810184848401111561190857611907611810565b5b6119138482856118cc565b509392505050565b5f82601f83011261192f5761192e61180c565b5b813561193f8482602086016118da565b91505092915050565b5f805f6060848603121561195f5761195e6115f3565b5b5f61196c8682870161161a565b935050602061197d86828701611705565b925050604084013567ffffffffffffffff81111561199e5761199d6115f7565b5b6119aa8682870161191b565b9150509250925092565b6119bd816116ab565b82525050565b6119cc816116e6565b82525050565b5f60c0820190506119e55f8301896119b4565b6119f260208301886119b4565b6119ff60408301876119c3565b611a0c60608301866119c3565b611a1960808301856119c3565b611a2660a08301846119b4565b979650505050505050565b5f805f60608486031215611a4857611a476115f3565b5b5f611a558682870161161a565b9350506020611a6686828701611705565b9250506040611a77868287016116d2565b9150509250925092565b611a8a816115fb565b82525050565b5f602082019050611aa35f830184611a81565b92915050565b5f805f8060808587031215611ac157611ac06115f3565b5b5f611ace8782880161161a565b9450506020611adf87828801611705565b9350506040611af0878288016116d2565b925050606085013567ffffffffffffffff811115611b1157611b106115f7565b5b611b1d8782880161191b565b91505092959194509250565b5f82825260208201905092915050565b7f4368616e6e656c2077697468207468652073616d6520696420697320707265735f8201527f656e740000000000000000000000000000000000000000000000000000000000602082015250565b5f611b93602383611b29565b9150611b9e82611b39565b604082019050919050565b5f6020820190508181035f830152611bc081611b87565b9050919050565b5f606082019050611bda5f8301866119b4565b611be760208301856119b4565b611bf460408301846119c3565b949350505050565b611c0581611659565b8114611c0f575f80fd5b50565b5f81519050611c2081611bfc565b92915050565b5f60208284031215611c3b57611c3a6115f3565b5b5f611c4884828501611c12565b91505092915050565b7f556e61626c6520746f207472616e7366657220746f6b656e20746f20746865205f8201527f636f6e7472616374000000000000000000000000000000000000000000000000602082015250565b5f611cab602883611b29565b9150611cb682611c51565b604082019050919050565b5f6020820190508181035f830152611cd881611c9f565b9050919050565b5f604082019050611cf25f8301856119c3565b611cff60208301846119b4565b9392505050565b7f63616e4465706f7369742072657475726e65642066616c7365000000000000005f82015250565b5f611d3a601983611b29565b9150611d4582611d06565b602082019050919050565b5f6020820190508181035f830152611d6781611d2e565b9050919050565b7f4e487b71000000000000000000000000000000000000000000000000000000005f52601160045260245ffd5b5f611da5826116e6565b9150611db0836116e6565b9250828201905080821115611dc857611dc7611d6e565b5b92915050565b5f602082019050611de15f8301846119c3565b92915050565b7f63616e436c61696d2072657475726e65642066616c73650000000000000000005f82015250565b5f611e1b601783611b29565b9150611e2682611de7565b602082019050919050565b5f6020820190508181035f830152611e4881611e0f565b9050919050565b5f604082019050611e625f8301856119b4565b611e6f60208301846119c3565b9392505050565b7f556e61626c6520746f207472616e7366657220746f6b656e20746f206368616e5f8201527f6e656c2072656365697665720000000000000000000000000000000000000000602082015250565b5f611ed0602c83611b29565b9150611edb82611e76565b604082019050919050565b5f6020820190508181035f830152611efd81611ec4565b9050919050565b5f611f0e826116e6565b9150611f19836116e6565b9250828203905081811115611f3157611f30611d6e565b5b92915050565b7f556e61626c6520746f207472616e7366657220746f6b656e20746f206368616e5f8201527f6e656c2073656e64657200000000000000000000000000000000000000000000602082015250565b5f611f91602a83611b29565b9150611f9c82611f37565b604082019050919050565b5f6020820190508181035f830152611fbe81611f85565b9050919050565b7f63616e536574746c652072657475726e65642066616c736500000000000000005f82015250565b5f611ff9601883611b29565b915061200482611fc5565b602082019050919050565b5f6020820190508181035f83015261202681611fed565b9050919050565b5f8160601b9050919050565b5f6120438261202d565b9050919050565b5f61205482612039565b9050919050565b61206c612067826116ab565b61204a565b82525050565b5f819050919050565b61208c612087826115fb565b612072565b82525050565b5f819050919050565b6120ac6120a7826116e6565b612092565b82525050565b5f6120bd828761205b565b6014820191506120cd828661207b565b6020820191506120dd828561209b565b6020820191506120ed828461205b565b60148201915081905095945050505050565b7f63616e5374617274536574746c696e672072657475726e65642066616c7365005f82015250565b5f612133601f83611b29565b915061213e826120ff565b602082019050919050565b5f6020820190508181035f83015261216081612127565b9050919050565b5f81519050919050565b5f81905092915050565b5f5b8381101561219857808201518184015260208101905061217d565b5f8484015250505050565b5f6121ad82612167565b6121b78185612171565b93506121c781856020860161217b565b80840191505092915050565b5f6121de82856121a3565b91506121ea828461207b565b6020820191508190509392505050565b7f4e487b71000000000000000000000000000000000000000000000000000000005f52602160045260245ffd5b5f60ff82169050919050565b61223c81612227565b82525050565b5f6080820190506122555f830187611a81565b6122626020830186612233565b61226f6040830185611a81565b61227c6060830184611a81565b9594505050505056fea2646970667358221220d9a6fbf29a683a7a8f6452a9cf92d999b4afe3009f58226e4ccd504745b850c664736f6c63430008140033",
  "immutableReferences": {},
  "source": "// SPDX-License-Identifier: Apache-2.0\npragma solidity ^0.8.20;\n\nimport \"@openzeppelin/contracts/utils/cryptography/ECDSA.sol\";\nimport \"@openzeppelin/contracts/token/ERC20/ERC20.sol\";\n\n\n/// @title Unidirectional payment channels contract for ERC20 tokens.\ncontract TokenUnidirectional {\n    struct PaymentChannel {\n        address sender;\n        address receiver;\n        uint256 value; // Total amount of money deposited to the channel.\n\n        uint256 settlingPeriod; // How many blocks to wait for the receiver to claim her funds, after sender starts settling.\n        uint256 settlingUntil; // Starting with this block number, anyone can settle the channel.\n        address tokenContract; // Address of ERC20 token contract.\n    }\n\n    mapping (bytes32 => PaymentChannel) public channels;\n\n    event DidOpen(bytes32 indexed channelId, address indexed sender, address indexed receiver, uint256 value, address tokenContract);\n    event DidDeposit(bytes32 indexed channelId, uint256 deposit);\n    event DidClaim(bytes32 indexed channelId);\n    event DidStartSettling(bytes32 indexed channelId);\n    event DidSettle(bytes32 indexed channelId);\n\n    /*** ACTIONS AND CONSTRAINTS ***/\n\n    /// @notice Open a new channel between `msg.sender` and `receiver`, and do an initial deposit to the channel.\n    /// @param channelId Unique identifier of the channel to be created.\n    /// @param receiver Receiver of the funds, counter-party of `msg.sender`.\n    /// @param settlingPeriod Number of blocks to wait for receiver to `claim` her funds after the sender starts settling period (see `startSettling`).\n    /// After that period is over anyone could call `settle`, and move all the channel funds to the sender.\n    /// @param tokenContract Address of ERC20 token contract.\n    /// @param value Initial channel amount.\n    /// @dev Before opening a channel, the sender should `approve` spending the token by TokenUnidirectional contract.\n    function open(bytes32 channelId, address receiver, uint256 settlingPeriod, address tokenContract, uint256 value) public {\n        require(isAbsent(channelId), \"Channel with the same id is present\");\n\n        ERC20 token = ERC20(tokenContract);\n        require(token.transferFrom(msg.sender, address(this), value), \"Unable to transfer token to the contract\");\n\n        channels[channelId] = PaymentChannel({\n            sender: msg.sender,\n            receiver: receiver,\n            value: value,\n            settlingPeriod: settlingPeriod,\n            settlingUntil: 0,\n            tokenContract: tokenContract\n        });\n\n        emit DidOpen(channelId, msg.sender, receiver, value, tokenContract);\n    }\n\n    /// @notice Ensure `origin` address can deposit funds into the channel identified by `channelId`.\n    /// @dev Constraint `deposit` call.\n    /// @param channelId Identifier of the channel.\n    /// @param origin Caller of `deposit` function.\n    function canDeposit(bytes32 channelId, address origin) public view returns(bool) {\n        PaymentChannel storage channel = channels[channelId];\n        bool isSender = channel.sender == origin;\n        return isOpen(channelId) && isSender;\n    }\n\n    /// @notice Add more funds to the contract.\n    /// @param channelId Identifier of the channel.\n    /// @param value Amount to be deposited.\n    function deposit(bytes32 channelId, uint256 value) public {\n        require(canDeposit(channelId, msg.sender), \"canDeposit returned false\");\n\n        PaymentChannel storage channel = channels[channelId];\n        ERC20 token = ERC20(channel.tokenContract);\n        require(token.transferFrom(msg.sender, address(this), value), \"Unable to transfer token to the contract\");\n        channel.value += value;\n\n        emit DidDeposit(channelId, value);\n    }\n\n    /// @notice Ensure `origin` address can start settling the channel identified by `channelId`.\n    /// @dev Constraint `startSettling` call.\n    /// @param channelId Identifier of the channel.\n    /// @param origin Caller of `startSettling` function.\n    function canStartSettling(bytes32 channelId, address origin) public view returns(bool) {\n        PaymentChannel storage channel = channels[channelId];\n        bool isSender = channel.sender == origin;\n        return isOpen(channelId) && isSender;\n    }\n\n    /// @notice Sender initiates settling of the contract.\n    /// @dev Actually set `settlingUntil` field of the PaymentChannel structure.\n    /// @param channelId Identifier of the channel.\n    function startSettling(bytes32 channelId) public {\n        require(canStartSettling(channelId, msg.sender), \"canStartSettling returned false\");\n\n        PaymentChannel storage channel = channels[channelId];\n        channel.settlingUntil = block.number + channel.settlingPeriod;\n\n        emit DidStartSettling(channelId);\n    }\n\n    /// @notice Ensure one can settle the channel identified by `channelId`.\n    /// @dev Check if settling period is over by comparing `settlingUntil` to a current block number.\n    /// @param channelId Identifier of the channel.\n    function canSettle(bytes32 channelId) public view returns(bool) {\n        PaymentChannel storage channel = channels[channelId];\n        bool isWaitingOver = block.number >= channel.settlingUntil;\n        return isSettling(channelId) && isWaitingOver;\n    }\n\n    /// @notice Move the money to sender, and close the channel.\n    /// After the settling period is over, and receiver has not claimed the funds, anyone could call that.\n    /// @param channelId Identifier of the channel.\n    function settle(bytes32 channelId) public {\n        require(canSettle(channelId), \"canSettle returned false\");\n\n        PaymentChannel storage channel = channels[channelId];\n        ERC20 token = ERC20(channel.tokenContract);\n\n        require(token.transfer(channel.sender, channel.value), \"Unable to transfer token to channel sender\");\n\n        delete channels[channelId];\n        emit DidSettle(channelId);\n    }\n\n    /// @notice Ensure `origin` address can claim `payment` amount on channel identified by `channelId`.\n    /// @dev Check if `signature` is made by sender part of the channel, and is for payment promise (see `paymentDigest`).\n    /// @param channelId Identifier of the channel.\n    /// @param payment Amount claimed.\n    /// @param origin Caller of `claim` function.\n    /// @param signature Signature for the payment promise.\n    function canClaim(bytes32 channelId, uint256 payment, address origin, bytes memory signature) public view returns(bool) {\n        PaymentChannel storage channel = channels[channelId];\n        bool isReceiver = origin == channel.receiver;\n        bytes32 hash = recoveryPaymentDigest(channelId, payment, channel.tokenContract);\n        bool isSigned = channel.sender == ECDSA.recover(hash, signature);\n\n        return isReceiver && isSigned;\n    }\n\n    /// @notice Claim the funds, and close the channel.\n    /// @dev Can be claimed by channel receiver only. Guarded by `canClaim`.\n    /// @param channelId Identifier of the channel.\n    /// @param payment Amount claimed.\n    /// @param signature Signature for the payment promise.\n    function claim(bytes32 channelId, uint256 payment, bytes memory signature) public {\n        require(canClaim(channelId, payment, msg.sender, signature), \"canClaim returned false\");\n\n        PaymentChannel storage channel = channels[channelId];\n        ERC20 token = ERC20(channel.tokenContract);\n\n        if (payment >= channel.value) {\n            require(token.transfer(channel.receiver, channel.value), \"Unable to transfer token to channel receiver\");\n        } else {\n            require(token.transfer(channel.receiver, payment), \"Unable to transfer token to channel receiver\");\n            uint256 change = channel.value - payment;\n            require(token.transfer(channel.sender, change), \"Unable to transfer token to channel sender\");\n        }\n\n        delete channels[channelId];\n\n        emit DidClaim(channelId);\n    }\n\n    /*** CHANNEL STATE ***/\n\n    /// @notice Check if the channel is not present.\n    /// @param channelId Identifier of the channel.\n    function isAbsent(bytes32 channelId) public view returns(bool) {\n        PaymentChannel storage channel = channels[channelId];\n        return channel.sender == address(0x0);\n    }\n\n    /// @notice Check if the channel is present: in open or settling state.\n    /// @param channelId Identifier of the channel.\n    function isPresent(bytes32 channelId) public view returns(bool) {\n        return !isAbsent(channelId);\n    }\n\n    /// @notice Check if the channel is in settling state: waits till the settling period is over.\n    /// @dev It is settling, if `settlingUntil` is set to non-zero.\n    /// @param channelId Identifier of the channel.\n    function isSettling(bytes32 channelId) public view returns(bool) {\n        PaymentChannel storage channel = channels[channelId];\n        return channel.settlingUntil != 0;\n    }\n\n    /// @notice Check if the channel is open: present and not settling.\n    /// @param channelId Identifier of the channel.\n    function isOpen(bytes32 channelId) public view returns(bool) {\n        return isPresent(channelId) && !isSettling(channelId);\n    }\n\n    /*** PAYMENT DIGEST ***/\n\n    /// @return Hash of the payment promise to sign.\n    /// @param channelId Identifier of the channel.\n    /// @param payment Amount to send, and to claim later.\n    /// @param tokenContract Address of ERC20 token contract.\n    function paymentDigest(bytes32 channelId, uint256 payment, address tokenContract) public view returns(bytes32) {\n        return keccak256(abi.encodePacked(address(this), channelId, payment, tokenContract));\n    }\n\n    /// @return Actually signed hash of the payment promise, considering \"Ethereum Signed Message\" prefix.\n    /// @param channelId Identifier of the channel.\n    /// @param payment Amount to send, and to claim later.\n    function recoveryPaymentDigest(bytes32 channelId, uint256 payment, address tokenContract) internal view returns(bytes32) {\n        bytes memory prefix = \"\\x19Ethereum Signed Message:\\n32\";\n        return keccak256(abi.encodePacked(prefix, paymentDigest(channelId, payment, tokenContract)));\n    }\n}\n",
  "sourcePath": "/Users/user/Desktop/projects/machinomy/packages/contracts/contracts/TokenUnidirectional.sol",
  "compiler": {
    "name": "solc",
    "version": "0.8.20+commit.a1b79de6.Emscripten.clang"
  },
  "schemaVersion": "3.4.16",
  "updatedAt": "2024-05-25T22:43:56.218Z",
  "devdoc": {
    "errors": {
      "ECDSAInvalidSignature()": [
        {
          "details": "The signature derives the `address(0)`."
        }
      ],
      "ECDSAInvalidSignatureLength(uint256)": [
        {
          "details": "The signature has an invalid length."
        }
      ],
      "ECDSAInvalidSignatureS(bytes32)": [
        {
          "details": "The signature has an S value that is in the upper half order."
        }
      ]
    },
    "kind": "dev",
    "methods": {
      "canClaim(bytes32,uint256,address,bytes)": {
        "details": "Check if `signature` is made by sender part of the channel, and is for payment promise (see `paymentDigest`).",
        "params": {
          "channelId": "Identifier of the channel.",
          "origin": "Caller of `claim` function.",
          "payment": "Amount claimed.",
          "signature": "Signature for the payment promise."
        }
      },
      "canDeposit(bytes32,address)": {
        "details": "Constraint `deposit` call.",
        "params": {
          "channelId": "Identifier of the channel.",
          "origin": "Caller of `deposit` function."
        }
      },
      "canSettle(bytes32)": {
        "details": "Check if settling period is over by comparing `settlingUntil` to a current block number.",
        "params": {
          "channelId": "Identifier of the channel."
        }
      },
      "canStartSettling(bytes32,address)": {
        "details": "Constraint `startSettling` call.",
        "params": {
          "channelId": "Identifier of the channel.",
          "origin": "Caller of `startSettling` function."
        }
      },
      "claim(bytes32,uint256,bytes)": {
        "details": "Can be claimed by channel receiver only. Guarded by `canClaim`.",
        "params": {
          "channelId": "Identifier of the channel.",
          "payment": "Amount claimed.",
          "signature": "Signature for the payment promise."
        }
      },
      "deposit(bytes32,uint256)": {
        "params": {
          "channelId": "Identifier of the channel.",
          "value": "Amount to be deposited."
        }
      },
      "isAbsent(bytes32)": {
        "params": {
          "channelId": "Identifier of the channel."
        }
      },
      "isOpen(bytes32)": {
        "params": {
          "channelId": "Identifier of the channel."
        }
      },
      "isPresent(bytes32)": {
        "params": {
          "channelId": "Identifier of the channel."
        }
      },
      "isSettling(bytes32)": {
        "details": "It is settling, if `settlingUntil` is set to non-zero.",
        "params": {
          "channelId": "Identifier of the channel."
        }
      },
      "open(bytes32,address,uint256,address,uint256)": {
        "details": "Before opening a channel, the sender should `approve` spending the token by TokenUnidirectional contract.",
        "params": {
          "channelId": "Unique identifier of the channel to be created.",
          "receiver": "Receiver of the funds, counter-party of `msg.sender`.",
          "settlingPeriod": "Number of blocks to wait for receiver to `claim` her funds after the sender starts settling period (see `startSettling`). After that period is over anyone could call `settle`, and move all the channel funds to the sender.",
          "tokenContract": "Address of ERC20 token contract.",
          "value": "Initial channel amount."
        }
      },
      "paymentDigest(bytes32,uint256,address)": {
        "params": {
          "channelId": "Identifier of the channel.",
          "payment": "Amount to send, and to claim later.",
          "tokenContract": "Address of ERC20 token contract."
        },
        "returns": {
          "_0": "Hash of the payment promise to sign."
        }
      },
      "settle(bytes32)": {
        "params": {
          "channelId": "Identifier of the channel."
        }
      },
      "startSettling(bytes32)": {
        "details": "Actually set `settlingUntil` field of the PaymentChannel structure.",
        "params": {
          "channelId": "Identifier of the channel."
        }
      }
    },
    "title": "Unidirectional payment channels contract for ERC20 tokens.",
    "version": 1
  },
  "userdoc": {
    "kind": "user",
    "methods": {
      "canClaim(bytes32,uint256,address,bytes)": {
        "notice": "Ensure `origin` address can claim `payment` amount on channel identified by `channelId`."
      },
      "canDeposit(bytes32,address)": {
        "notice": "Ensure `origin` address can deposit funds into the channel identified by `channelId`."
      },
      "canSettle(bytes32)": {
        "notice": "Ensure one can settle the channel identified by `channelId`."
      },
      "canStartSettling(bytes32,address)": {
        "notice": "Ensure `origin` address can start settling the channel identified by `channelId`."
      },
      "claim(bytes32,uint256,bytes)": {
        "notice": "Claim the funds, and close the channel."
      },
      "deposit(bytes32,uint256)": {
        "notice": "Add more funds to the contract."
      },
      "isAbsent(bytes32)": {
        "notice": "Check if the channel is not present."
      },
      "isOpen(bytes32)": {
        "notice": "Check if the channel is open: present and not settling."
      },
      "isPresent(bytes32)": {
        "notice": "Check if the channel is present: in open or settling state."
      },
      "isSettling(bytes32)": {
        "notice": "Check if the channel is in settling state: waits till the settling period is over."
      },
      "open(bytes32,address,uint256,address,uint256)": {
        "notice": "Open a new channel between `msg.sender` and `receiver`, and do an initial deposit to the channel."
      },
      "settle(bytes32)": {
        "notice": "Move the money to sender, and close the channel. After the settling period is over, and receiver has not claimed the funds, anyone could call that."
      },
      "startSettling(bytes32)": {
        "notice": "Sender initiates settling of the contract."
      }
    },
    "version": 1
  }
}